:020000040800F2
:10000000B8A2002065010008913B0008DB3400081D
:100010008D3B0008870700087542000800000000BB
:10002000000000000000000000000000CB3C0008C1
:100030004109000800000000CD3B0008CD3C00084D
:100040007F0100087F0100087F0100087F01000890
:100050007F0100087F0100087F0100087F01000880
:100060007F0100087F0100087F0100087F01000870
:100070007F0100087F0100087F0100087F01000860
:100080007F0100087F0100087F0100087F01000850
:100090007F0100087F0100087F0100087F01000840
:1000A0007F0100087F0100087F0100087F01000830
:1000B000153E00087F0100087F0100087F0100084D
:1000C0007F0100087F0100087F0100087F01000810
:1000D0007F0100087F0100085542000865420008C2
:1000E0007F0100087F0100087F0100080000000078
:1000F0000000000000000000000000000000000000
:1001000000000000000000007F0100087F010008DF
:100110007F0100087F0100087F0100087F010008BF
:100120007F0100087F0100087F0100087F010008AF
:100130007F010008FD0900087F0100087F01000819
:100140007F0100087F0100087F0100087F0100088F
:10015000DFF80CD000F06AFA00480047797E00080A
:10016000B8A200200648804706480047FEE7FEE7A1
:10017000FEE7FEE7FEE7FEE7FEE7FEE7FEE7FEE757
:10018000B13D000851010008202A04DB203A21FA81
:1001900002F00021704721FA02F3D040C2F12002A0
:1001A00091400843194670470649074A086850437A
:1001B00043F2390210440860400870470149086062
:1001C00070470000400100206D4EC64140EA010327
:1001D0009B0703D009E008C9121F08C0042AFAD2FD
:1001E00003E011F8013B00F8013B521EF9D27047C1
:1001F000D2B201E000F8012B491EFBD27047002269
:10020000F6E710B513460A4604461946FFF7F0FF15
:10021000204610BD30B504460020034600E05B1CBC
:10022000934203D2E05CCD5C401BF8D030BD30B5CA
:100230000B46014600202022012409E021FA02F5A4
:100240009D4205D303FA02F5491B04FA02F528443E
:10025000151EA2F10102F1DC30BD2DE9F05F05466B
:10026000002092469B4688460646814640241BE075
:100270002846414647462246FFF786FF53465A46E0
:10028000C01A914110D311461846224600F0E0F9F9
:100290002D1A67EB01084F4622460120002100F08D
:1002A000D7F917EB00094E41201EA4F10104DFDC51
:1002B000484631462A464346BDE8F09F2DE9FE4FA9
:1002C000804681EA0300C00F0C46009021F00041F7
:1002D00023F00045B8EB0200A94105D24046214673
:1002E00090461C460B46024623F00040104347D080
:1002F000270DC7F30A00C3F30A510290401A019078
:1003000040286BDAC3F3130040F4801B0098924638
:1003100020B10023D2EB030A63EB0B0B0198594683
:10032000C0F14002504600F093F906460D46504693
:100330005946019A00F09BF910EB08006141002436
:1003400087EA115284EAE7731A4340D0009A62B3F5
:10035000019A012A4FEA075215DC001B61EB0201EA
:100360004FF0004202EA0752CDE90042001C41F57D
:10037000801132462B4600F09BF903B0BDE8F08FA8
:1003800040462146F9E7001B61EB0201001C41F5E4
:10039000801300185B412018A2F5001747EB0301FA
:1003A00040EAD570B6196D4111E06D084FEA360686
:1003B00045EAC0754FEA0752001B61EB0201001CC1
:1003C00041F5801149084FEA300000195141324689
:1003D0002B4603B0BDE8F04F00F05BB90098012256
:1003E00040000023D0EB020263EBE073009821464B
:1003F0004FEAE074B8EB000061EB0401E9E783F039
:1004000000435BE781F0004158E72DE9FE4F81EAA8
:10041000030404F0004421F0004100944FF0000B6D
:1004200023F0004350EA01045ED052EA03045BD09B
:10043000C3F30A54C1F30A552C44A4F2F3340194D3
:10044000A0FB0254C1F3130141F48011C3F3130361
:1004500043F4801301FB024400FB034E840A970A15
:1004600044EA815447EA8357A4FB076802958D0A42
:1004700005FB07854FEA932C04FB0C542705029DCE
:100480004FEA065847EA1637B5EB08056EEB070C3E
:10049000870E920E47EA811742EA8312A7FB0201F8
:1004A000B6EB0B0164EB00042B0D43EA0C335E1832
:1004B00044EB1C50DA465146E7FB0201C5F3130436
:1004C0004FEA0B3343EA14534FEA0432019C43EAE8
:1004D0000603A4F10C040294009CCDE900B400F0E2
:1004E000E7F803B0BDE8F08F00200146F9E72DE9F9
:1004F000F04D81EA030404F0004B21F0004514465E
:100500004FF0000A23F0004150EA050220D054EADF
:1005100001021DD0C5F30A570246C5F31303C1F308
:100520001300C1F30A5640F4801543F48013A7EB7F
:100530000608101BD64608F2FD3873EB050002D3FF
:1005400008F1010801E092185B41B8F1000F03DAED
:1005500000200146BDE8F08D00204FF480110646D2
:1005600084460EE0171B73EB050705D3121B63EBE4
:10057000050306434CEA010C49084FEA3000921883
:100580005B4150EA0107EDD152EA030012D082EA42
:10059000040083EA0501084305D0101BAB4106D2D5
:1005A0000122002306E000224FF0004302E06FF03A
:1005B000010253101AEB06004CEB085110EB0A0035
:1005C00041EB0B01BDE8F04D00F063B8C1F30A52F6
:1005D000C1F3130140F2FF3341F480119A4202DA71
:1005E00000200146704740F233439A42A2F2334260
:1005F00002DC5242FFF7C8BD00F02AB830B5041E35
:1006000071F1000404DB4FF00044404264EB01014F
:10061000141E73F1000405DB1C464FF000435242E8
:1006200063EB0403994208BF904230BD064C074D6E
:1006300006E0E06840F0010394E8070098471034B2
:10064000AC42F6D3FFF788FD6CD100088CD10008CE
:10065000202A04DB203A00FA02F100207047914082
:10066000C2F1200320FA03F3194390407047202A77
:1006700006DBCB17203A41FA02F043EAE07306E0CA
:1006800041FA02F3D040C2F12002914008431946DA
:10069000704710B5141E73F1000408DA401C41F1D4
:1006A000000192185B411A4301D120F0010010BDF6
:1006B0002DE9F04D92469B4611B1B1FA81F202E06C
:1006C000B0FA80F220329046FFF7C2FF04460F4690
:1006D00040EA0A0041EA0B0153465A46084313D048
:1006E000114653EA010019D0C8F140025046FFF705
:1006F0004BFD05460E46504659464246FFF7A8FFB9
:10070000084305D0012004E020463946BDE8F08DBD
:100710000020054346EAE0762C4337430A986305F8
:10072000E40AA0EB08000022FD0A44EA47540A301C
:1007300002D500200146E9E7010510196941DDE90C
:10074000084500196941BDE8F04DA2E730B58C18A5
:1007500010F8012B12F00F0301D110F8013B120920
:1007600006D110F8012B03E010F8015B01F8015BE2
:100770005B1EF9D101E001F8013B521EFBD1A14201
:10078000E6D3002030BD00BFFEE7000010B50446F0
:1007900001F038FC06490968401AB0F5FA7F06D323
:1007A00001F030FC02490860204600F003F810BD5B
:1007B000C400002070B588B004463C480078012889
:1007C00004D002281BD005286BD166E03848007899
:1007D00048B901203649087000206060A060E060E0
:1007E000204605F07FFA02203049087000BF31A092
:1007F00007F081F92FA003F089FD00BF52E02046E9
:1008000005F0CCFA002815D0032028490870201DD7
:1008100006F0EAFE0646324630A1684603F086FD41
:1008200000BF69462EA007F066F969462CA003F0C8
:100830006DFD31E0656AA87A04282DDD04201B498E
:100840000870204605F094FA304807906FF07F401A
:1008500006902F48059005AB06AA07A9204607F089
:10086000ACFF201D06F0C0FE064632461BA16846BE
:1008700003F05CFD00BF27A007F03DF925A003F0C1
:1008800045FD00BF00BF694627A007F034F969465F
:1008900025A003F03BFD00BF04E0002003490870E1
:1008A00000E000BF00BF08B070BD0000EC000020F9
:1008B000ED000020202053746174653A204C6F6F66
:1008C0006B696E6720666F722044484350207365E1
:1008D00072766572202E2E2E0A000000257300000D
:1008E0004950206164647265737320617373696732
:1008F0006E6564206279206120444843502073650E
:10090000727665723A2025730A000000C0A801FCC7
:10091000C0A80101444843502054696D656F757447
:10092000202121200A00000053746174696320496A
:100930005020616464726573733A2025730A000065
:100940007047016801F58051896921F00202016850
:1009500001F580518A617047016801F5805189690C
:1009600041F00202016801F580518A617047016817
:1009700001F58051896921F40052016801F5805127
:100980008A617047016801F58051896941F400521C
:10099000016801F580518A617047000008B5084977
:1009A0000968C9084FF47A72B1FBF2F14143009132
:1009B00000BF00BF00994A1E00920029F9D108BD6E
:1009C000BC00002038B5044600200090206800F5E7
:1009D0008050806940F48011206800F5805081616A
:1009E000206800F58050806900900120FFF7D6FF55
:1009F0000099206800F58050816138BD10B502482B
:100A000000F01AFD10BD00005080002030B50346F4
:100A10001479557944EA0520084C0C442064D478B4
:100A20002406957844EA0544557844EA0524157867
:100A300044EA0500014C0C44606430BD0080024073
:100A400070B5ACB004460E46002526B14FF40061E7
:100A5000E160C900A16000200F90109011901290E9
:100A600013901490E06918B94FF48060159001E07C
:100A7000002015904FF400701690002017901890E9
:100A800019901A901B9040201C9000201D901E90E1
:100A90001F902090219022902390249080202590D8
:100AA000002026902790289029902A902B9020684B
:100AB00005686F480540DDE90F01084311990843B7
:100AC00012990843A16808431399084314990843ED
:100AD000E168084315990843169908431799084394
:100AE0001899084319990843054320680560206850
:100AF0000568012000F00EFB20680560DDE91A01A1
:100B000008431C9908431D9908431E9908431F99DF
:100B100008432099084321990843216848602068C8
:100B20004568012000F0F6FA2068456022982168A7
:100B3000886023982168C860206885694FF64170F5
:100B40000540DDE9241040EA014026990843279931
:100B5000084328990843299908430543206885617B
:100B600020688569012000F0D5FA20688561DDE9FB
:100B70002A0108432168C8612068C569012000F086
:100B8000C9FA2068C561002000904FF00070019004
:100B9000002002904FF40010039000200490059074
:100BA0000690079004200890C005099040120A9012
:100BB00080010B9040120C9000200D900E90206848
:100BC00000F5805085692B480540DDE900010843A8
:100BD0000299084303990843049908430599084377
:100BE0000699084307990843089908430543206874
:100BF00000F580508561206800F5805085690120EE
:100C000000F088FA206800F580508561DDE909016F
:100C100008430B9908430C9908430D9940EA810059
:100C20000E99084340F40001206800F580500160EF
:100C3000206800F580500568012000F06BFA2068FC
:100C400000F580500560A069012809D1206800F5F1
:100C50008050C06908490843216801F58051C86186
:100C6000002120466269FFF7D1FE2CB070BD000064
:100C70000F8120FF233FDEF84000010038B5044615
:100C8000002000902068006820F0040021680860BF
:100C90002068006800900120FFF780FE009821681E
:100CA000086038BD38B50446002000902068006810
:100CB00040F004002168086020680068009001206E
:100CC000FFF76CFE00982168086038BD38B504460F
:100CD000002000902068006820F00800216808606B
:100CE0002068006800900120FFF758FE00982168F6
:100CF000086038BD38B504460020009020680068C0
:100D000040F0080021680860206800680090012019
:100D1000FFF744FE00982168086038BD0021074AAB
:100D2000D1610749096941F00401054A1161114681
:100D3000096941F04001116170470000C837002087
:100D4000002002400021074AD1610749096941F0AA
:100D50000201054A116111464861096941F04001EB
:100D600011617047C8370020002002400022054B67
:100D7000DA61054A126942F00102034B1A610180EF
:100D800070470000C83700200020024000201E49A4
:100D9000C96801F0100139B11C49C96941F002016B
:100DA0001A4AD16140F010001749C96801F00401E6
:100DB00039B11649C96941F00101144AD16140F0C5
:100DC00004001149C96901F0010169B10F49C969FC
:100DD00041F004010D4AD16100BF0B49C96921F0FE
:100DE0000101094AD16100BF00BF40F201118842F0
:100DF00006D10549C96921F00101034AD16101E029
:100E00000149C86000BF704700200240C837002079
:100E100070B5044601F0F6F8054609E0601C38B1EB
:100E200024B101F0EFF8401BA04201D9032070BDAE
:100E30001248C06800F001000028EFD10F48C068D8
:100E400000F0200020B100BF20200C49C86000BF86
:100E50000A48C06800F0100048B90848C06900F0AE
:100E6000010020B90548C06800F0040018B1FFF780
:100E70008DFF0120DBE70020D9E7000000200240C1
:100E80002DE9FC5F82468B46144600200090804688
:100E90008146CDF8048052E0207880284FDA277808
:100EA0000D2F08D100200090DDF8048009F110001A
:100EB0001FFA80F93EE000980F2807D1002000902B
:100EC000DDF8048009F110001FFA80F9202F03DDFE
:100ED000A7F1200087B200E00027002524E00026CB
:100EE0001EE005EB07101849095C802030410140E5
:100EF00049B109EB050291B208EB060290B25246E5
:100F000000F024F80AE0DA4508D009EB050291B2B6
:100F100008EB060290B25A4600F018F8701CC6B2F0
:100F2000082EDEDB681CC5B2102DD8DB08F10800E6
:100F30001FFA80F8641C0098401CC0B20090207812
:100F40000028A9D1BDE8FC9F00C9000870B504467F
:100F50000D461646681C83B2601C82B229462046A4
:100F600002F01EFC304602F0BBFA70BD70B50446BC
:100F7000002594F82100022803D00420A063012555
:100F8000C1E02068006820F00E0021680860206839
:100F9000006820F00100216808605C4920688842F0
:100FA00052D95A4978392068884201D1012047E056
:100FB000564964392068884201D1102040E05349E5
:100FC00050392068884201D1801539E04F493C39B9
:100FD0002068884201D1801432E04C4928392068C9
:100FE000884202D14FF480302AE048491439206801
:100FF000884202D14FF4801022E0444920688842A0
:1010000001D140041CE042492068884201D10120FE
:1010100016E03F4914312068884201D110200FE0CA
:101020003B4928312068884201D1801508E03849C1
:101030003C312068884201D1801401E04FF48030B7
:101040003349091F086051E03049783920688842E7
:1010500001D1012047E02D4964392068884201D13F
:10106000102040E0294950392068884201D180157C
:1010700039E026493C392068884201D1801432E0A9
:10108000224928392068884202D14FF480302AE072
:101090001E4914392068884202D14FF4801022E0A2
:1010A0001A492068884201D140041CE01849206890
:1010B000884201D1012016E0154914312068884288
:1010C00001D110200FE0124928312068884201D157
:1010D000801508E00E493C312068884201D1801417
:1010E00001E04FF48030094980394860012084F8DC
:1010F000210000BF002084F8200000BF606B10B109
:101100002046616B8847284670BD00008000024081
:101110000804024031B500F075FF0546009C601CD4
:1011200000B1641C00BF00F06DFF401BA042FAD369
:1011300038BD000070B505460C46002600BF95F886
:101140004500012801D1022070BD012085F845002D
:1011500000BF022085F84400002C6DD02868066886
:1011600043480640D4E900010843A1680843E16808
:101170000843A96808432169084361690843E9688D
:101180000843A1690843E1690843216A0843616A89
:101190000843A16A08430643286806602868066871
:1011A0000120FFF7B7FF28680660D4E90B01084368
:1011B000616B0843A16B0843E16B0843216C084352
:1011C000616C0843A16C0843296848602868466838
:1011D0000120FFF79FFF28684660E06C296888605F
:1011E000206D2968C860286886694FF641700640FE
:1011F000B4F85410A06D40EA0140E16D0843216E3F
:101200000843616E0843A16E08430643286886615F
:10121000286886690120FFF77DFF28688661D4E988
:101220001B0108432968C8612868C6690120FFF7C7
:1012300071FF2868C66110E02868066826F49046A9
:10124000D5E9020108430643286806602868066855
:101250000120FFF75FFF28680660012085F8440041
:1012600000BF002085F8450000BF00BF6CE700000C
:101270000F8120FF70B504460D461646002200BFC0
:1012800094F84500012801D1022070BD012084F8A6
:10129000450000BF022084F84400A56200221FE040
:1012A00005EB02114FF00040086044F2F450486032
:1012B000C2EBC21000EB400006EB80008860A06922
:1012C000012803D1486820F000404860581E904231
:1012D00004D905EB02101030C86000E0CD60521C4C
:1012E0009A42DDD3206800F58050C560012084F863
:1012F000440000BF002084F8450000BF00BFC4E7E1
:1013000070B504460D461646002200BF94F845000D
:10131000012801D1022070BD012084F8450000BFE2
:10132000022084F84400E56200221BE005EB021174
:101330004FF480100860C2EBC21000EB400006EBD7
:1013400080008860E06918B9086840F440000860CF
:10135000581E904204D905EB02101030C86000E01E
:10136000CD60521C9A42E1D3206800F5805005619F
:10137000012084F8440000BF002084F8450000BF2D
:1013800000BFC8E770470146002200BF91F8450042
:10139000012801D102207047012081F8450000BFDB
:1013A000022081F84400886A006800F000400028AC
:1013B00038D1886A006800F48070F0B1886B401CF6
:1013C0008863886B012801D1886A08638B6A4B6344
:1013D000886A0068C0F30D40021FCA63086B836807
:1013E0000B64886AC0688862012081F8440000BFED
:1013F000002081F8450000BFCDE7886A006800F44E
:10140000007048B1886A086300234B6301238B6333
:10141000886AC068886205E0886B401C8863886AB7
:10142000C0688862012081F8440000BF002081F874
:10143000450000BF0120AEE710B50446206800F566
:101440008050406900F0400040280FD1204600F055
:1014500036FA4021206800F580504161012084F86F
:10146000440000BF002084F8450016E0206800F525
:101470008050406900F0010078B1204600F011FB77
:101480000121206800F580504161012084F844006A
:1014900000BF002084F8450000BF4FF48031206871
:1014A00000F580504161206800F58050406900F4EB
:1014B0000040B0F5004F10D12046FFF763FF4FF416
:1014C0000041206800F580504161012084F844000B
:1014D00000BF002084F8450000BF10BD2DE9F8438F
:1014E00004460025002000908C4E0027804614B949
:1014F0000120BDE8F88394F8440028B9002084F85E
:101500004500204600F012F98548406820F40000AC
:101510008349486008464068216A0843804948601A
:10152000206800F58050006840F00101206800F557
:101530008050016000F066FD07460FE000F062FD9C
:10154000C01BB0F5FA7F09D9032084F8440000BF1E
:10155000002084F8450000BF0320CAE7206800F59A
:101560008050006800F001000028E7D1206805697C
:1015700025F01C0500F0F8FE06466A48864205D3B1
:101580006948864202D245F0080509E0664886426D
:1015900005D36248864202D245F00C0500E000BF48
:1015A000206805614FF400420021204600F07AFADD
:1015B00048B14FF0010841462046FFF741FA0120AB
:1015C00084F8440095E7FF20FFF7A4FD6068002839
:1015D00071D000F017FD074600BF6A460121204682
:1015E00000F024F900F00EFDC01B41F28831884262
:1015F0000FD94FF0010841462046FFF721FA01209C
:1016000084F8440000BF002084F8450000BF032098
:101610006FE7009800F004000428DED18202002168
:10162000204600F03FFA48B14FF0010841462046FD
:10163000FFF706FA012084F844005AE700F0E2FCC4
:10164000074600BF6A460121204600F0EFF800F08F
:10165000D9FCC01B41F2883188420FD94FF00108F4
:1016600041462046FFF7ECF9012084F8440000BF12
:10167000002084F8450000BF03203AE7009800F0FE
:1016800020002028DED16A461021204600F0CEF846
:1016900048B14FF0010841462046FFF7D1F901203B
:1016A00084F8440025E7009800F0040020B14FF4CE
:1016B0000061E16002E00DE00021E160009800F0CF
:1016C0000200022802D10021A1601EE04FF48041F7
:1016D000A1601AE0E068C0F3CF00A168C1F34F0138
:1016E00040EA01020021204600F0DCF948B14FF049
:1016F000010841462046FFF7A3F9012084F8440081
:10170000F7E640F6FF70FFF705FD41462046FFF77C
:1017100097F9012084F844000020EAE6008793034B
:1017200000000140002D3101C00E160210B586B038
:10173000044637492068884268D100BF00BF354859
:10174000406940F48040334948610846406900F4EC
:101750008040019000BF00BF00BF0846406940F4D0
:10176000004048610846406900F40040019000BF15
:1017700000BF00BF0846406940F480304861084619
:10178000406900F48030019000BF00BF00BF02201C
:10179000029003900320059002A91F4800F09AFAD6
:1017A0000220029000200390049002A91B4800F040
:1017B00091FA04200290022003900320059002A9D0
:1017C000164800F087FA4FF4605002900220039010
:1017D0000320059002A9124800F07CFA4FF4E06063
:1017E000029000200390049002A90E4800F072FAC3
:1017F0000D48406840F400100B4948600022114633
:101800003D2000F08CFC3D2000F07CFC06B010BDBB
:10181000008002400010024000100140000801401A
:10182000000C014000140140000001402DE9F0418E
:1018300004460E4617460025A84694F84400822820
:1018400002D10220BDE8F081822084F844002068A3
:10185000056905F01C05208A4FF4784101EAC02093
:101860000543481100EA8610054325F0020545F0BE
:1018700001052068056100F0C5FB804612E000F01C
:10188000C1FBA0EB0800B0F5803F09D3012084F82C
:10189000440000BF002084F8450000BF0320D1E7CA
:1018A0002068056905F001000028E8D1206840693A
:1018B00080B23860012084F844000020C2E77047FD
:1018C00010B5044600BF94F84500012801D102205C
:1018D00010BD012084F8450000BF022084F84400B8
:1018E0002046FFF707FA2046FFF7DCF92046FFF70E
:1018F00069F82046FFF746F82046FFF72DF801204B
:1019000084F8440000BF002084F8450000BF00BFF9
:10191000DEE710B5044600BF94F84500012801D168
:10192000022010BD012084F8450000BF022084F889
:1019300044002046FFF71BF82046FFF702F8204638
:10194000FFF79CF92046FFF73DF82046FFF7BEF968
:10195000012084F8440000BF002084F8450000BF47
:1019600000BFDEE770B5024600230025002400BF5B
:1019700092F84500012801D1022070BD012082F8B3
:10198000450000BF022082F8440049B9012082F8D6
:10199000440000BF002082F8450000BF0120ECE7B2
:1019A000D06A006800F0004048B1122082F844007C
:1019B00000BF002082F8450000BF0120DDE740F2B3
:1019C000F450814208D9B1FBF0F3B1FBF0F600FB13
:1019D000161010B15B1C00E00123012B13D1D06A5B
:1019E000006840F04050D66A3060C1F30C00D66AFF
:1019F0007060D06A006840F00040D66A3060D06AFB
:101A0000C068D06232E000242EE0D06A006820F086
:101A10004050D66A30602CB9D06A006840F08050DF
:101A2000D66A306040F2F450D66A7060581EA04208
:101A300010D1D06A006840F00050D66A3060581E5D
:101A4000C0EBC01000EB4000A1EB8005C5F30C001B
:101A5000D66A7060D06A006840F00040D66A306094
:101A6000D06AC068D062641C9C42CED3106800F576
:101A70008050406900F0040048B10426106800F569
:101A8000805046610026106800F5805046600120B5
:101A900082F8440000BF002082F8450000BF00BF6C
:101AA0006BE770472DE9F04104460E4617460025C6
:101AB000A84694F84400422802D10220BDE8F081F3
:101AC000422084F844002068056905F01C05208A3E
:101AD0004FF4784101EAC0200543481100EA86101E
:101AE000054345F0020545F00105B8B2216848619B
:101AF0002068056100F086FA804612E000F082FA64
:101B0000A0EB0800B0F5803F09D3012084F8440021
:101B100000BF002084F8450000BF0320CEE7206806
:101B2000056905F001000028E8D1012084F844008F
:101B30000020C3E72DE9F04104460E4601270025A9
:101B400000BF2648007E012802D10220BDE8F081B6
:101B500001202249087600BF2068022813D14CF2E8
:101B60005030FFF755F990BB0120FFF7D7F84CF242
:101B70005030FFF74DF907461948006920F004007E
:101B80001749086123E04CF25030FFF741F9F0B9F2
:101B90004FF0FF303060A56812E02846FFF7D2F81A
:101BA0004CF25030FFF734F907460D48006920F039
:101BB00002000B4908610FB1356007E005F50065CB
:101BC000D4E9021001EBC020A842E6D800BF00BF54
:101BD00000200249087600BF3846B7E7C837002022
:101BE000002002400348006940F08000014908617C
:101BF00000207047002002402DE9FE4F05468B462D
:101C000017469846012600240020029000BF244871
:101C1000007E012802D10220BDE8FE8F012020496C
:101C2000087600BF4CF25030FFF7F2F8064686BB4C
:101C3000012D02D10120029006E0022D02D10220E6
:101C4000029001E00420029000241EE02201B94627
:101C5000C24648465146FEF797FA80B201900220EC
:101C600000FB04B000900199FFF780F84CF250306F
:101C7000FFF7CEF806460B48006920F0010009493D
:101C8000086106B104E0601CC4B202988442DDDB46
:101C900000BF00BF00200249087600BF3046BBE706
:101CA000C8370020002002400748006900F080008B
:101CB00028B10648044948600548486001E0012011
:101CC00070470020FCE70000002002402301674528
:101CD000AB89EFCD2DE9F84703460024002000250D
:101CE0008446002700226EE14FF0010808FA02F452
:101CF000D1F8008008EA0400A0427DD1DFF8D0A22C
:101D0000D1F80480A8EB0A09D0453AD014DCB8F128
:101D1000030F50D009DCB8F1000F31D0B8F1010F3A
:101D20001CD0B8F1020F49D120E0B8F1110F18D042
:101D3000B8F1120F42D11EE0B9F5881F25D006DC9C
:101D4000B9F5803F20D0B9F5801F37D11AE0B9F539
:101D5000001F18D0B9F5041F30D117E0D1F80CC01E
:101D60002DE0D1F80C8008F1040C28E0D1F80C80AB
:101D700008F1080C23E0D1F80C8008F10C0C1EE0EF
:101D800000BF00BF00BF00BF00BF00BFD1F8088088
:101D9000B8F1000F02D14FF0040C0BE0D1F808802D
:101DA000B8F1010F03D14FF0080C1C6102E04FF0B5
:101DB000080C5C6103E04FF0000C00E000BF00BFC6
:101DC000FF2801D8984601E003F104084646FF28A1
:101DD00002D84FEA820803E0A2F108084FEA880817
:101DE0004746D6F800804FF00F0909FA07F928EAAC
:101DF00009080CFA07F900E088E048EA0908C6F883
:101E00000080D1F8048008F08058B8F1805F7DD15F
:101E100000BFDFF8C081D8F8188048F00108DFF86B
:101E2000B491C9F81880C846D8F8188008F001089D
:101E3000CDF8008000BF00BF4FEAB9384FEA9209E1
:101E400058F829504FEA82784FEA18794FF00F0876
:101E500008FA09F825EA0805DFF87C81434502D134
:101E60004FF0000816E0DFF87481434502D14FF0CF
:101E700001080FE0DFF86881434502D14FF0020806
:101E800008E0DFF86081434502D14FF0030801E02C
:101E90004FF004084FEA82794FEA197908FA09F8F5
:101EA00048EA0505DFF840814FEA920948F82950D1
:101EB000D1F8048008F48038B8F5803F0AD1DFF803
:101EC0002C81D8F8008048EA0008DFF82091C9F892
:101ED000008009E0DFF81481D8F8008028EA0008C3
:101EE000DFF80891C9F80080D1F8048008F40038C0
:101EF000B8F5003F10D1DFF8F48008F10408D8F8F5
:101F0000008048EA0008DFF8E49000E05AE009F1B8
:101F10000409C9F800800DE0DFF8D08008F104085A
:101F2000D8F8008028EA0008DFF8C09009F1040919
:101F3000C9F80080D1F8048008F48018B8F5801F33
:101F40000ED1DFF8A88008F10808D8F8008048EA28
:101F50000008DFF8989009F10809C9F800800DE041
:101F6000DFF8888008F10808D8F8008028EA00081F
:101F7000DFF8789009F10809C9F80080D1F80480E9
:101F800008F40018B8F5001F0ED1DFF8608008F1E2
:101F90000C08D8F8008048EA0008DFF8509009F1F2
:101FA0000C09C9F800800DE0DFF8408008F10C084A
:101FB000D8F8008028EA0008DFF8309009F10C0911
:101FC000C9F80080521C102AFFF48EAEBDE8F887D5
:101FD000000011100010024000080140000C0140F8
:101FE00000100140001401400800014000040140BD
:101FF000C2684A40C26070470AB1016101E00B0447
:10200000036170470148006870470000C00000206D
:1020100002480068401C014908607047C000002069
:1020200010B50848006840F0100006490860032019
:1020300000F0B4F8002000F007F800F019F80020D4
:1020400010BD00000020024070B50446074800683B
:102050004FF47A71B0FBF1F5284600F059FE0022EA
:102060002146501E00F05BF8002070BDBC0000202F
:1020700008B500BF2148806940F001001F49886110
:102080000846806900F00100009000BF00BF0320F7
:1020900000F084F8002211466FF00B0000F03FF8CA
:1020A000002211466FF00A0000F039F800221146B4
:1020B0006FF0090000F033F800221146501F00F0C5
:1020C0002EF800221146101F00F029F800221146B8
:1020D000901E00F024F800221146501E00F01FF858
:1020E00000BF0748406820F0E060054948600846A6
:1020F000406840F00070486000BF08BD001002401A
:102100000000014000BF00F01F0201219140420980
:10211000920002F1E022C2F8001100BF70472DE9E1
:10212000F05F80460D461646002701F033FD074656
:1021300039462A46334601F00700C0F1070ABAF1D2
:10214000040F02D94FF0040A01E0C0F1070AD1469A
:1021500000F1040ABAF1070F02D24FF0000A01E0C1
:10216000A0F1030AD4464FF0010A0AFA09FAAAF1CB
:10217000010A0AEA020A0AFA0CFA4FF0010B0BFAFA
:102180000CFBABF1010B0BEA030B4AEA0B042146F3
:10219000404601F007FDBDE8F09F000000BF00F0E1
:1021A0000702064B19684FF6FF031940044B0B4317
:1021B00043EA0221014B196000BF70470CED00E0BB
:1021C0000000FA0570B504460D4600266248006816
:1021D00000F00700A8420ED25F48006820F0070018
:1021E00028435D4908600846006800F00700A842DF
:1021F00001D0012070BD207800F00200022807D134
:102200005648406820F0F000A168084353494860F0
:10221000207800F0010000285DD06068012806D118
:102220004E48006800F4003090B90120E2E7606891
:10223000022806D14948006800F0007040B901202A
:10224000D8E74648006800F0020008B90120D1E74D
:102250004248406820F00300616808433F494860F5
:10226000FFF7D0FE06466068012810D108E0FFF7AE
:10227000C9FE801B41F28831884201D90320B9E7A9
:102280003648406800F00C000428F0D123E0606874
:10229000022810D108E0FFF7B5FE801B41F288311B
:1022A000884201D90320A5E72C48406800F00C00C3
:1022B0000828F0D10FE008E0FFF7A4FE801B41F2F0
:1022C0008831884201D9032094E72448406800F00F
:1022D0000C000028F0D12048006800F00700A84258
:1022E0000ED91D48006820F0070028431A490860ED
:1022F0000846006800F00700A84201D0012079E7F5
:10230000207800F00400042807D11448406820F425
:10231000E060E168084311494860207800F0080057
:10232000082808D10D48406820F46050216940EA2F
:10233000C1000A49486000F03DF808494968C1F306
:102340000311074A515CC840064908600020FFF7A6
:102350007BFE00204EE700000020024000100240FB
:10236000E8C80008BC000020014800687047000071
:10237000BC00002000B5FFF7F7FF04494968C1F32E
:102380000221034A515CC84000BD00000010024019
:10239000F8C8000800B5FFF7E7FF04494968C1F332
:1023A000C221034A515CC84000BD00000010024039
:1023B000F8C800082DE9F04388B00FF2D00898E87B
:1023C0008012D8F80C80CDE9059CCDF81C800497CC
:1023D0000FF2C809D9E9017CD9F80080D9F80C902E
:1023E000CDE902C9CDE900870022002400230021A5
:1023F0000020002500262D4F7A6802F00C07002FE0
:102400003DD0042F02D0082F38D101E0284838E011
:1024100004AFC2F3834C17F80C1002F4803747B3B3
:10242000224FFF6A07F00F071DF807401F4FFF6A92
:1024300007F4803797B11D4FFF6AC7F303177D1C60
:102440001A4FFF6AC7F30327BE1C194FB7FBF5F7F6
:102450007743B7FBF4F707FB01F304E0144FB7FB36
:10246000F4F707FB01F39DF81D708F4204D15B0860
:1024700002E0104F01FB07F3184602E000BF0E48D0
:1024800000BF00BF08B0BDE8F083000000000405F5
:102490000607080900000000000D00000102030407
:1024A00005060708090A0B0C0D0E0F10001002405C
:1024B00040787D0100093D0000127A0070B586B0B9
:1024C00005460C46164600200290039004900590A5
:1024D0000220039003200590002004904FF48070A8
:1024E000029000BF0C48806940F004000A498861EE
:1024F0000846806900F00400019000BF00BF02A9F7
:102500000648FFF7E7FB0448406820F0706020436E
:102510000149486006B070BD00100240000801404B
:10252000F8B504460025207800F00100002878D096
:10253000FD48406800F00C0004280CD0FA484068C0
:1025400000F00C00082811D1F748406800F48030F2
:10255000B0F5803F0AD1F448006800F4003000284C
:102560005FD0A06800285CD10120F8BD00BFA06842
:10257000B0F5803F06D1EC48006840F48030EA496D
:10258000086028E0A06858B9E748006820F4803067
:10259000E54908600846006820F4802008601AE0D9
:1025A000A068B0F5A02F0BD1DF48006840F4802070
:1025B000DD4908600846006840F4803008600AE0A1
:1025C000D948006820F48030D74908600846006880
:1025D00020F48020086000BFA06888B1FFF712FDDA
:1025E000054606E0FFF70EFD401B642801D90320D5
:1025F000BBE7CD48006800F400300028F2D010E0BE
:10260000FFF700FD054606E0FFF7FCFC401B6428D1
:1026100001D90320A9E7C448006800F4003000286D
:10262000F2D1207800F00200022857D1BE4840685D
:1026300000F00C0050B1BC48406800F00C000828C5
:1026400018D1B948406800F4803098B9B64800689D
:1026500000F0020020B16069012801D0012084E768
:10266000B148006820F0F800A16940EAC100AE4915
:10267000086033E06069E8B10120AC490860FFF709
:10268000C1FC054606E0FFF7BDFC401B022801D94E
:1026900003206AE7A448006800F002000028F2D096
:1026A000A148006820F0F800A16940EAC1009E49F5
:1026B000086013E000209D490860FFF7A3FC054671
:1026C00006E0FFF79FFC401B022801D903204CE7DE
:1026D0009548006800F002000028F2D1207800F050
:1026E000080008282DD1E069B8B1012090490860A0
:1026F000FFF788FC054606E0FFF784FC401B022834
:1027000001D9032031E78848406A00F00200002820
:10271000F2D0012001F05CFA13E000208449086047
:10272000FFF770FC054606E0FFF76CFC401B022833
:1027300001D9032019E77C48406A00F00200002814
:10274000F2D1207800F00400042873D100267648E6
:10275000C06900F0805070B900BF7348C06940F094
:1027600080507149C8610846C06900F080500090EF
:1027700000BF00BF01266F48006800F48070B0B948
:102780006C48006840F480706A490860FFF73AFCC2
:10279000054606E0FFF736FC401B642801D90320FC
:1027A000E3E66448006800F480700028F2D000BFBF
:1027B0002069012806D15C48006A40F001005A49AE
:1027C000086227E0206958B95748006A20F00100E4
:1027D000554908620846006A20F00400086219E0C2
:1027E000206905280BD15048006A40F004004E498A
:1027F00008620846006A40F0010008620AE04A48A0
:10280000006A20F00100484908620846006A20F08A
:102810000400086200BF2069A0B1FFF7F3FB054682
:1028200009E0FFF7EFFB401B41F28831884202D9F3
:1028300003209AE622E03C48006A00F002000028EB
:10284000EFD012E0FFF7DEFB054608E0FFF7DAFB0A
:10285000401B41F28831884201D9032085E6324885
:10286000006A00F002000028F0D1012E05D12E48A8
:10287000C06920F080502C49C86100BFE06AA0B355
:102880002948406800F48030B0F5803F0ED12648DA
:10289000406800F00C00082808D12348C06A00F402
:1028A0008030B0F5803F01D101205EE6E06A022869
:1028B00050D11D48006800F0805040B11A48C06AED
:1028C00000F0F001606B814201D001204DE6002054
:1028D00016498866FFF796FB054607E0FFF792FB6F
:1028E000401B642802D903203FE64DE00E480068F3
:1028F00000F000600028F1D10B48C06A20F0F00021
:10290000616B08430849C8620846C06A20F47060D9
:10291000216B08430449C862012004498866FFF717
:1029200071FB05460FE0000000100240000042422B
:102930008004424200700040FFF764FB401B6428A3
:1029400001D9032011E64648006800F00060002825
:10295000F2D019E04248C06A20F480304049C86291
:10296000002040498866FFF74DFB054606E0FFF76B
:1029700049FB401B642801D90320F6E5384800686C
:1029800000F000600028F2D1206AE0B334484068CB
:1029900000F00C0008285ED0206A022846D10020F2
:1029A00030490866FFF72EFB054606E0FFF72AFBD5
:1029B000401B022801D90320D7E52948006800F010
:1029C00000700028F2D1606AB0F5803F0DD1244834
:1029D000C06A616808432249C8620846C06A20F09C
:1029E0000F00E16808431E49C862D4E909010843A1
:1029F0001B49496821F474110843194948600120B2
:102A00001849086600E028E0FFF7FCFA054606E0F2
:102A1000FFF7F8FA401B022801D90320A5E510486A
:102A2000006800F000700028F2D016E000200D4988
:102A30000866FFF7E7FA054606E0FFF7E3FA401BF2
:102A4000022801D9032090E50548006800F00070D5
:102A50000028F2D101E0012087E5002085E5000093
:102A6000001002400000424210B504460CB901209B
:102A700010BD0021A16294F8510010B9204600F069
:102A800037F8022084F851002068006820F04000E8
:102A900021680860D4E901010843E168084321691D
:102AA000084361690843218B01F400710843E1691F
:102AB0000843216A0843A16A084321680860042189
:102AC000A06901EA1040616A0843216848602168F2
:102AD000E06A08612068C06920F400602168C8616C
:102AE00000206065012084F851000020C0E700004C
:102AF00010B586B004460F492068884217D100BF40
:102B00000D48806940F480500B498861084680690F
:102B100000F48050019000BF00BFA020029002206E
:102B200003900320059002A90448FFF7D3F806B0EC
:102B300010BD0000003001400010024000080140BC
:102B40002DE9F84304460D4617461E464FF000088F
:102B5000C14600BF94F85000012802D10220BDE810
:102B6000F883012084F8500000BFFFF74BFA80463D
:102B700094F85100012802D04FF00209A9E005B1F4
:102B800017B94FF00109A4E0032084F85100002098
:102B900060652563A786E786A063A087E0876064F9
:102BA0002064A068B0F5004F05D12068006840F4AB
:102BB0008040216808602068006800F040004028DC
:102BC00005D02068006840F0400021680860E06897
:102BD000B0F5006F2AD1606810B1E08E012806D1EF
:102BE00028882168C860AD1CE08E401EE08619E090
:102BF0002068806800F00200022807D12888216838
:102C0000C860AD1CE08E401EE0860BE03EB1701C3B
:102C100040B1FFF7F7F9A0EB0800B04202D34FF044
:102C2000030956E0E08E0028E2D129E0606810B187
:102C3000E08E012806D12878216808736D1CE08E8B
:102C4000401EE08619E02068806800F0020002283B
:102C500007D12878216808736D1CE08E401EE0863D
:102C60000BE03EB1701C40B1FFF7CCF9A0EB0800BF
:102C7000B04202D34FF003092BE0E08E0028E2D1EE
:102C80003346012202212046CDF8008000F0C8FF23
:102C900010B14FF003091CE042463146204600F0D7
:102CA000ABFF20B14FF001092020606511E0A06862
:102CB00050B900BF002000902068C06800902068D4
:102CC0008068009000BF00BF606D08B14FF001093F
:102CD00000BF012084F8510000BF002084F850009C
:102CE00000BF48463BE7042808D14FF0E0210969BE
:102CF00041F004014FF0E022116107E04FF0E021C4
:102D0000096921F004014FF0E0221161704770471A
:102D100070B504462546681EB0F1807F01D30120BE
:102D20000FE0681E4FF0E02148610F214FF0FF30A7
:102D300000F038FF00204FF0E02188610720086193
:102D4000002070BD10B5FFF7E2FF10BD704770475F
:102D5000024600BF92F83C00012801D102207047D2
:102D6000012082F83C0000BF022082F83D0010687C
:102D7000406820F0700013685860106840680B6865
:102D80001843136858601068806820F0800013684A
:102D90009860106880684B68184313689860012039
:102DA00082F83D0000BF002082F83C0000BF00BF59
:102DB000D5E710B504460CB9012010BD94F83D00CC
:102DC00028B9002084F83C00204600F00DF80220CD
:102DD00084F83D00211D206801F024F8012084F8CA
:102DE0003D000020E9E7000038B504462068B0F156
:102DF000804F15D100BF0B48C06940F00100094960
:102E0000C8610846C06900F00100009000BF00BF23
:102E1000002211461C20FFF782F91C20FFF772F9EF
:102E200038BD00000010024001460868C06840F04C
:102E300001000A68D0600868006840F001000A6874
:102E40001060002070472DE9F04104460D46002631
:102E500000BF94F83C00012802D10220BDE8F081B7
:102E6000012084F83C0000BF022084F83D00206867
:102E7000866826F0770626F47F46206886602868F4
:102E800050283BD00CDC202860D004DC002853D034
:102E9000102865D155E030285DD0402860D141E050
:102EA000602835D070280DD0B0F5805F03D0B0F524
:102EB000005F55D115E02068806820F00700216888
:102EC00088604EE0D5E902136A68206800F0ECFFE4
:102ED0002068866826F0770646F0770620688660C8
:102EE0003FE0D5E902136A68206800F0DDFF206842
:102EF000806840F480402168886032E0EA68696850
:102F0000206800F0E7FF5021206800F0D9FF28E09A
:102F1000EA686968206800F0F2FF6021206800F02C
:102F2000CFFF1EE0EA686968206800F0D3FF402107
:102F3000206800F0C5FF14E00021206800F0C0FF09
:102F40000FE01021206800F0BBFF0AE0202120687C
:102F500000F0B6FF05E03021206800F0B1FF00E08E
:102F600000BF00BF012084F83D0000BF002084F8AE
:102F70003C0000BF00BF71E7704710B504462068F1
:102F80000069C0F34000D8B12068C068C0F34000B9
:102F9000B0B16FF00200216808610120207720683D
:102FA000806900F0030018B12046FFF7E5FF05E057
:102FB000204600F0ADF8204600F0ABF80020207766
:102FC00020680069C0F38000D8B12068C068C0F3F1
:102FD0008000B0B16FF00400216808610220207702
:102FE0002068806900F4407018B12046FFF7C4FFE4
:102FF00005E0204600F08CF8204600F08AF800201A
:10300000207720680069C0F3C000D8B12068C0688C
:10301000C0F3C000B0B16FF008002168086104205F
:1030200020772068C06900F0030018B12046FFF740
:10303000A3FF05E0204600F06BF8204600F069F899
:103040000020207720680069C0F30010D8B1206804
:10305000C068C0F30010B0B16FF0100021680861C3
:10306000082020772068C06900F4407018B120461D
:10307000FFF782FF05E0204600F04AF8204600F006
:1030800048F8002020772068006900F0010058B15E
:103090002068C06800F0010030B16FF001002168C5
:1030A0000861204600F036F820680069C0F3C010BF
:1030B00058B12068C068C0F3C01030B16FF0800014
:1030C000216808612046FFF741FE20680069C0F3CF
:1030D000801058B12068C068C0F3801030B16FF024
:1030E000400021680861204600F01AF82068006955
:1030F000C0F3401058B12068C068C0F3401030B130
:103100006FF02000216808612046FFF720FE10BD07
:10311000704770470121014A117070473C0100203F
:10312000704770472DE9F04704462068056820681D
:10313000C668206847694FF00008C14605F00F08CF
:10314000B8F1000F0AD105F0200038B106F02000D8
:1031500020B1204600F013FFBDE8F087B8F1000F62
:103160006DD007F0010018B906F49070002866D001
:1031700005F0010030B106F4807018B1E06B40F04A
:103180000100E06305F0040030B107F0010018B160
:10319000E06B40F00200E06305F0020030B107F0A0
:1031A000010018B1E06B40F00400E06305F0080096
:1031B00030B107F0010018B1E06B40F00800E063A7
:1031C000E06B68B305F0200028B106F0200010B1D4
:1031D000204600F0D4FE20684069C0F38019E06BFF
:1031E00000F0080010B9B9F1000F22D0204600F01D
:1031F000A6FE2068406900F04000B0B12068406938
:1032000020F0400021684861606B50B11748616B45
:103210004863606BFDF7AAFE10B1606B416B884795
:103220000CE02046FFF77DFF08E02046FFF779FF1E
:1032300004E02046FFF775FF0020E0638CE705F00F
:10324000800030B106F0800018B1204600F0CEFFBB
:1032500082E705F0400030B106F0400018B120468A
:1032600000F07DFE78E700BF76E700002B3F000806
:1032700010B504460CB9012010BDA06900B100E0F2
:1032800000BF94F8390028B9002084F8380020469F
:1032900000F028F8242084F839002068C06820F461
:1032A00000502168C860204600F0BCFE206800691C
:1032B00020F49040216808612068406920F02A00CD
:1032C000216848612068C06840F400502168C860E7
:1032D0000020E063202084F8390084F83A000020C0
:1032E000CAE7000010B586B0044638492068884215
:1032F0002FD100BF3648C06940F400303449C8615E
:103300000846C06900F40030019000BF00BF2020D3
:103310000290022003900320059002A92D48FEF799
:10332000D9FC4020029000200390049002A9294873
:10333000FEF7D0FC2848406840F008002649486065
:10334000002211462620FEF7EAFE2620FEF7DAFECE
:103350003AE022492068884236D100BF1C48C06943
:1033600040F480201A49C8610846C06900F48020F2
:10337000019000BF00BF08150290022003900320B7
:10338000059002A91648FEF7A5FC4FF400600290D4
:1033900000200390049002A91148FEF79BFC00BF97
:1033A0000D48406820F030000B49486008464068EE
:1033B00040F01000486000BF002211462720FEF7B1
:1033C000AEFE2720FEF79EFE06B010BD0044004072
:1033D000001002400014014000000140004800407D
:1033E0000010014010B5034693F83A0020282FD171
:1033F00001B10AB9012010BD00BF93F838000128BF
:1034000001D10220F7E7012083F8380000BF99625C
:103410009A85DA850020D863222083F83A0000BF1D
:10342000002083F8380000BF1868C06840F480703E
:103430001C68E0601868406940F001001C68606129
:103440001868C06840F020001C68E0600020D2E7E7
:103450000220D0E710B504461B4884421ED11B4809
:10346000007819490968486000BF1748006800687B
:10347000C0F3C0100028F8D0144800781449096837
:10348000486000BF124800680068C0F3C010002800
:10349000F8D001220D490C48FFF7A4FF0C488442E4
:1034A00011D10C4800780A490968486000BF0848F3
:1034B00000680068C0F3C0100028F8D00122054958
:1034C0000348FFF78FFF10BD30810020EE00002081
:1034D00070810020EF000020704700BFFEE7000071
:1034E00010B50446002240210948FEF785FD01225F
:1034F00011020848FEF780FD201205F0E1FDE0B260
:1035000005F0DEFD012240210148FEF775FD10BDEA
:10351000000801400018014070B506469F237F2235
:103520000021084600F03CF92C2000F081F900242D
:1035300008E0002503E03046FFF7D2FF6D1CA02D08
:10354000F9D3641C802CF4D370BD000010B500F0DA
:1035500013F9112000F06CF9782001F0BDFBB120C7
:1035600000F066F9012000F049F92C2000F046F93E
:103570002D2000F043F9B22000F05AF9012000F0AC
:103580003DF92C2000F03AF92D2000F037F9B32056
:1035900000F04EF9012000F031F92C2000F02EF956
:1035A0002D2000F02BF9012000F028F92C2000F04C
:1035B00025F92D2000F022F9B42000F039F9072078
:1035C00000F01CF9C02000F033F9A22000F016F939
:1035D000022000F013F9842000F010F9C12000F05F
:1035E00027F9C52000F00AF9C22000F021F90A20CD
:1035F00000F004F9002000F001F9C32000F018F9F0
:103600008A2000F0FBF82A2000F0F8F8C42000F02F
:103610000FF98A2000F0F2F8EE2000F0EFF8C52054
:1036200000F006F90E2000F0E9F8362000F000F96D
:10363000C02000F0E3F8E02000F0FAF80F2000F0DE
:10364000DDF81A2000F0DAF80F2000F0D7F8182083
:1036500000F0D4F82F2000F0D1F8282000F0CEF8A8
:10366000202000F0CBF8222000F0C8F81F2000F046
:10367000C5F81B2000F0C2F8232000F0BFF8372067
:1036800000F0BCF8002000F0B9F8072000F0B6F810
:10369000022000F0B3F8102000F0B0F8E12000F0B4
:1036A000C7F80F2000F0AAF81B2000F0A7F80F20A1
:1036B00000F0A4F8172000F0A1F8332000F09EF8E5
:1036C0002C2000F09BF8292000F098F82E2000F024
:1036D00095F8302000F092F8302000F08FF8392073
:1036E00000F08CF83F2000F089F8002000F086F808
:1036F000072000F083F8032000F080F8102000F08D
:103700007DF82A2000F094F8002000F077F80020DF
:1037100000F074F8002000F071F87F2000F06EF8DF
:103720002B2000F085F8002000F068F8002000F061
:1037300065F8002000F062F89F2000F05FF8F020AC
:1037400000F076F8012000F059F8F62000F070F84B
:10375000002000F053F83A2000F06AF8052000F04D
:103760004DF8292000F064F8012251020148FEF7CB
:1037700043FC10BD0018014010B50022802107480D
:10378000FEF73AFC642001F0A7FA012280210348E9
:10379000FEF732FC322001F09FFA10BD0018014004
:1037A0002DE9F04104460D4616461F462A2000F03A
:1037B0003FF8002000F022F8A11CC8B200F01EF86B
:1037C000002000F01BF8B11CC8B200F017F82B2045
:1037D00000F02EF8002000F011F8691CC8B200F0CB
:1037E0000DF8002000F00AF8791CC8B200F006F8C5
:1037F0002C2000F01DF8BDE8F081000010B5044653
:10380000002240210848FEF7F7FB01221102074879
:10381000FEF7F2FB204605F053FC0122402102484E
:10382000FEF7EAFB10BD000000080140001801404F
:1038300010B50446002240210848FEF7DDFB0022B7
:103840004FF480710648FEF7D7FB204605F038FCA0
:10385000012240210148FEF7CFFB10BD00080140C6
:103860000018014000B585B000BF4148806940F0B4
:1038700010003F4988610846806900F01000009000
:1038800000BF00BF00BF0846806940F004008861A7
:103890000846806900F00400009000BF00BF00BF30
:1038A0000846806940F0400088610846806900F061
:1038B0004000009000BF00BF00BF0846806940F094
:1038C000080088610846806900F00800009000BF89
:1038D00000BF00BF0846806940F0200088610846AC
:1038E000806900F02000009000BF00BF012240214D
:1038F0002048FEF781FB002280211F48FEF77CFB59
:1039000001224FF463411C48FEF776FB01221103AC
:103910001A48FEF771FB402001900120029003201D
:10392000049001A91348FEF7D5F94EF280300190BA
:10393000012002900320049001A90F48FEF7CAF964
:103940004FF480700190022002900320049001A99E
:103950000848FEF7BFF94FF4805001900120029013
:103960000320049001A90548FEF7B4F905B000BD95
:103970000010024000080140001801400010014002
:103980000EB504F068FA0020144908601449086074
:1039900014490860144815490022124BCDE9002152
:1039A00002900F4A0D49124804F0B8FE104804F086
:1039B00029FF0F4890F83300C0F3800018B10C487D
:1039C00004F0A7FF02E00A4804F022FF0949084872
:1039D00004F060FF064802F085F90EBDCC0000201F
:1039E000D0000020D40000207D6700089D680008FA
:1039F000E8370020F969000810B5074802F066FFB3
:103A000005F074FB044802F0C5FF0348FCF7BEFE56
:103A100008F0B4FB10BD0000E837002010B50F48D7
:103A20000F4908604FF48270486000210C488160A3
:103A3000C160016141614FF4007181610821C16180
:103A400000210162416281620A21C162FFF70CF824
:103A500018B1E92103A000F057FC10BD003001406F
:103A6000988000202E2E2F5372632F6D61696E2E69
:103A70006300000000B587B04FF08040184908602F
:103A800041F61F40486000211548816040F2F31163
:103A9000C160002101618161FFF78BF918B1FD213F
:103AA00010A000F031FC4FF48050039003A90C48A3
:103AB000FFF7C9F920B140F203110AA000F024FC7D
:103AC00000200190029001A90548FFF741F920B1BB
:103AD0004FF4857103A000F017FC07B000BD000093
:103AE000F08000202E2E2F5372632F6D61696E2E91
:103AF0006300000010B50C480C4908604FF4E13039
:103B00004860002109488160C16001610C21416168
:103B100000218161C161FFF7ABFB20B140F21D11B3
:103B200003A000F0F1FB10BD0044004030810020F4
:103B30002E2E2F5372632F6D61696E2E630000006D
:103B400010B50C480C4908604FF41650486000212D
:103B500009488160C16001610C21416100218161DE
:103B6000C161FFF785FB20B14FF4987103A000F00D
:103B7000CBFB10BD00480040708100202E2E2F533B
:103B800072632F6D61696E2E6300000000BFFEE757
:103B90007047000002480068C0F302207047000030
:103BA0000CED00E010B5002807DA0A07140E054AEC
:103BB00000F00F031B1FD45403E00A07130E024A40
:103BC000135410BD18ED00E000E400E07047000061
:103BD00008B508490968C9084FF47A72B1FBF2F1D7
:103BE0004143009100BF00BF00994A1E0092002986
:103BF000F9D108BDBC000020F8B504460D461646B4
:103C00002B46002280212046009600F009F828B1BA
:103C1000606D40F0200060650320F8BD0020FCE7E7
:103C20002DE9F04104460E4617461D46DDF8188082
:103C30003FE0681CE0B32DB1FEF7E4F9A0EB08000B
:103C4000A84236D32068406820F0E0002168486030
:103C50006068B0F5827F0DD1A068B0F5004F03D049
:103C6000A068B0F5806F05D12068006820F04000A2
:103C700021680860A06AB0F5005F0ED100BF20681F
:103C800000684DF6FF7108402168086020680068F0
:103C900040F400502168086000BF012084F8510002
:103CA00000BF002084F8500000BF0320BDE8F08171
:103CB000FFE7206880683040B04201D1012000E079
:103CC0000020B842B5D10020F0E7704710B5FEF7EC
:103CD0009FF9FFF737F810BD10B594B0012006909A
:103CE000000408900420099001200B900004079024
:103CF00002200E90C1030F914FF4E011109111902A
:103D00004FF4C06112914021139106A8FEF708FC00
:103D100018B1AB2120A000F0F7FA0F20019002208B
:103D20000290002003904FF48060049000200590E2
:103D3000022101A8FEF746FA18B1B92116A000F039
:103D4000E3FA00224FF030611046FEF7B7FBFEF7B2
:103D50000BFB4FF47A71B0FBF1F42046FEF7D8FF6D
:103D60000420FEF7C0FF1048C06A20F0F00040F0C9
:103D700040000D49C8620846C06A20F4704040F413
:103D80000040C86201200949086700221146801ED0
:103D9000FEF7C5F914B010BD2E2E2F5372632F6D90
:103DA00061696E2E63000000001002400000424274
:103DB0001448006840F00100124908600846406855
:103DC000114908400F494860084600680F490840FB
:103DD0000C4908600846006820F480200860084606
:103DE000406820F4FE0048600846006820F0A050BB
:103DF00008604FF47F0088600020C862C80304494F
:103E000008607047001002400000FFF0FFFFF6FE60
:103E100008ED00E010B50248FFF7AFF810BD000054
:103E2000F0800020002202681B4B98420BD0B0F1BA
:103E3000804F08D0194B984205D0194B984202D0B8
:103E4000184B984203D122F070024B681A43124B70
:103E500098420BD0B0F1804F08D0104B984205D05B
:103E60000F4B984202D00F4B984203D122F440727C
:103E7000CB681A4322F080024B691A4302608B68B8
:103E8000C3620B688362044B984201D10B690363E0
:103E90000123436170470000002C014000040040F2
:103EA00000080040000C004030B50C46002181683D
:103EB00021F47F4142EA032525432943816030BD37
:103EC0000A460021816821F0700142F0070319437E
:103ED0008160704730B50B46144600210022026A0B
:103EE000056A25F001050562816921F0F00141EACA
:103EF000041122F00A021A438161026230BD30B51A
:103F00000B46144600210022056A25F010050562C3
:103F10008169026A21F4704141EA043122F0A00271
:103F200042EA03128161026230BD70B505466C6AD7
:103F30000020E085E0842046FFF7F3F870BD0168BB
:103F4000C96821F490710268D1600168496921F063
:103F5000010102685161202180F83A10704710B5C4
:103F600004462068C06820F040002168C860202016
:103F700084F839002046FFF7AFFA002010BD70B575
:103F8000044694F83A0022284AD1A068B0F5805F30
:103F900013D1A56A206940B920684068C0F30800C1
:103FA0002880A06A801CA06219E020684068C0B226
:103FB0002880A06A401CA06211E0206938B92068FE
:103FC0004068C1B2A26A501CA062117007E020686C
:103FD000406800F07F01A26A501CA0621170E08D61
:103FE000401E80B2E085C8B92068C06820F020007B
:103FF0002168C8602068C06820F480702168C860AB
:104000002068406920F0010021684861202084F880
:104010003A002046FFF71EFA002070BD0020FCE7A2
:104020000220FAE72DE9F0410446002520680069E6
:1040300020F44050E1680843216808612169A068C4
:1040400008436169084305432068C06841F20C6178
:10405000884328432168C8602068406920F4407084
:10406000A1690843216848615F49206888425CD1A2
:10407000FEF790F900EBC00101EB001061688900C8
:10408000B0FBF1F6FEF786F900EBC00101EB001082
:1040900061688900B0FBF1F06421B0FBF1F000EB46
:1040A000C00101EB0010A6EB8000322101EB0010F3
:1040B0006421B0FBF1F000F0F006FEF76BF900EBC5
:1040C000C00101EB001061688900B0FBF1F06421D0
:1040D000B0FBF1F006EB0016FEF75CF900EBC00157
:1040E00001EB001061688900B0FBF1F7FEF752F9AF
:1040F00000EBC00101EB001061688900B0FBF1F03A
:104100006421B0FBF1F000EBC00101EB0010A7EB64
:104110008000322101EB00106421B0FBF1F000F0CF
:104120000F003044216888605BE0FEF723F900EB64
:10413000C00101EB001061688900B0FBF1F6FEF7E9
:1041400019F900EBC00101EB001061688900B0FBB8
:10415000F1F06421B0FBF1F000EBC00101EB0010C5
:10416000A6EB8000322101EB00106421B0FBF1F0DE
:1041700000F0F006FEF7FEF800EBC00101EB0010C6
:1041800061688900B0FBF1F06421B0FBF1F006EB4F
:104190000016FEF7EFF800EBC00101EB00106168BC
:1041A0008900B0FBF1F7FEF7E5F800EBC00101EB89
:1041B000001061688900B0FBF1F06421B0FBF1F000
:1041C00000EBC00101EB0010A7EB8000322101EBF6
:1041D00000106421B0FBF1F000F00F0030442168C2
:1041E0008860BDE8F081000000380140014691F888
:1041F000390021282CD18868B0F5805F0FD10A6A78
:104200001088C0F308000B685860086918B9086A7C
:10421000801C086209E0086A401C086205E00B6A1D
:10422000581C086218780B685860C88C401E80B211
:10423000C88458B90868C06820F080000B68D8604E
:104240000868C06840F040000B68D86000207047E4
:104250000220FCE710B50248FEF764FF10BD000025
:104260003081002010B50248FEF75CFF10BD000051
:104270007081002000BFFEE710B5044694F83300BB
:1042800000F0010050B101200A49087000BF0AA0E7
:1042900003F031FC08A000F039F80AE005200549D8
:1042A000087000BF0EA003F026FC0DA000F02EF851
:1042B00000BF10BDEC000020202053746174653AEB
:1042C000204C6F6F6B696E6720666F7220444843A5
:1042D0005020736572766572202E2E2E0A00000023
:1042E000546865206E6574776F726B206361626CD1
:1042F00065206973206E6F7420636F6E6E656374E2
:104300006564200A0000000000BFFEE70FB4054B03
:1043100010B503A9044A029800F0F2F810BC5DF849
:1043200014FB0000CD6A0008440100200FB4084BC4
:1043300010B504A902AA039800F0E2F8044602A905
:10434000002000F074FC204610BC5DF814FB000057
:104350002F4C000837B514460846064B6A462146DE
:1043600000F0CEF804466946002000F060FC2046CC
:104370003EBD00002F4C000802E008C8121F08C113
:10438000002AFAD170477047002001E001C1121FD6
:10439000002AFBD1704780F3108870472DE9FF5F3A
:1043A000DDE90220010DDDF838B0024318D044F6F3
:1043B0001050A1F2FF3141430D140F98012820D075
:1043C000A5EB0B00401C5FEA000A4FF00004474ECB
:1043D000DFF81C91A046504616D5CAF1000728E028
:1043E0000F98012443A2012808D0002100980F9BB8
:1043F000C0E90021C0E90243BDE8FF9F6FEA0B015D
:10440000F4E7CBF10000DEE7074612E0F80707D03B
:104410002246334640464946FBF7F7FF8046894629
:104420002246334610461946FBF7EFFF04460E4678
:104430007F10002FEAD1DDE90201BAF1000F4246F8
:104440004B4602DAFBF7E1FF01E0FCF750F80446C7
:104450000E460022284BFCF7D1F803D84FF0FF306E
:10446000014607E00022254B20463146FBF726FF98
:10447000FCF7ACF8102409E0002C0ADB0A22002328
:10448000FBF7EBFE019B30321A55641E50EA010225
:10449000F2D1641C019AC4F1110314440F9A012A49
:1044A00003D0012208430DD10AE0084304D00020C4
:1044B0004FF0110B0F9080E7A3EB0B056D1E0DE085
:1044C0005B4504DD4FF0000205F1010504E003DA6D
:1044D0004FF00002A5F10105002AECD000980F99D9
:1044E000C0E90231C0E9004586E700000000244031
:1044F0000000F03F300000000000F0430000E03F0B
:104500002DE9FF4F95B09B468946064600250FE2F0
:10451000252877D100242746F84A0121059400E098
:10452000044316F8013F203B01FA03F01042F7D193
:1045300030782A2811D06FF02F033078A0F13002A4
:10454000092A16D8059A44F0020402EB820203EB12
:1045500042021044761C0590EFE759F8042B0592AF
:10456000002A03DA504244F40054059044F0020457
:10457000761C30782E2816D116F8010F44F004046A
:104580002A280DD06FF02F023078A0F13003092BCC
:1045900009D807EB870302EB4303C718761CF3E740
:1045A00059F8047B761C30786C280FD006DC4C2838
:1045B00017D068280DD06A2814D104E0742810D0D0
:1045C0007A280FD10DE044F400140AE044F480147A
:1045D00001E044F440147278824202D104F5801460
:1045E000761C761C307866280BD013DC582877D0E0
:1045F00009DC002875D04528F6D04628F4D0472895
:104600001AD19DE118E0632835D0642879D0652857
:1046100012D195E1702873D008DC6728F1D06928A1
:104620006FD06E280DD06F2806D1B5E073282CD03E
:10463000752875D0782874D05A46179990476D1C04
:1046400075E1C4F30250022809D003280DD0D9F82F
:10465000001004280DD00D6009F1040967E1D9F8B4
:104660000010EA17C1E90052F6E7D9F800100D80F2
:10467000F2E70D70F0E719F8041B8DF80010002028
:104680008DF80100EA46012003E059F804AB4FF031
:10469000FF3061074FF0000102D40DE008F1010185
:1046A0008846B9420FDA8045F8DB1AF8081000296D
:1046B000F4D108E008F1010188468142FADB1AF8DA
:1046C00008100029F6D105985B46A0EB08072146A3
:1046D0003846179A00F094FA284400EB080507E0E2
:1046E0004DE029E10DE01AF8010B5A461799904761
:1046F000B8F10108F7D25B4621463846179A13E114
:1047000042E00A220092C4F302524FF0000A022A49
:1047100008D059F804CB032A4FEAEC710AD00DE017
:1047200029E02AE009F1070121F00702F2E802C1BD
:10473000914609E00FFA8CFC4FEAEC71042A03D190
:104740004FFA8CFC4FEAEC71002907DA0A46002187
:10475000DCF1000C61EB02012D2202E0220504D500
:104760002B228DF80420012203E0E20701D0202251
:10477000F7E7904659E00A2102E010220DE01021EF
:104780004FF0000A00910BE010224FF0000A44F0B5
:1047900004040827009203E008224FF0000A009268
:1047A000C4F30252022A05D059F804CB0021032A8F
:1047B00008D009E009F1070121F00702F2E802C17F
:1047C000914605E01FFA8CFC042A01D10CF0FF0C85
:1047D0004FF00008220728D5702806D0009B83F0F0
:1047E000100353EA0A0305D00EE040228DF804209E
:1047F000012208E05CEA010206D030228DF8042094
:104800008DF8050002229046009B83F0080353EACE
:104810000A030AD15CEA010201D1620705D5302200
:104820008DF804204FF001087F1E582804D034A0D2
:1048300003900EA802900DE036A0F9E753466046BB
:10484000009AFBF70AFD84460398825C0298401E9A
:10485000029002705CEA0100F0D1029806A9081AE1
:1048600000F1200A600702D524F4803400E001271B
:10487000574502DDA7EB0A0000E0002000EB0A012B
:10488000009005984144401A0590E00306D45B4629
:104890002146179A059800F0B3F90544002706E071
:1048A00001A85A46C05D179990476D1C7F1C47456B
:1048B000F6DBE0030CD55B462146179A059800F01D
:1048C0009FF9054404E030205A46179990476D1C23
:1048D0000099481E00900029F5DC08E00298029932
:1048E0005A460078491C0291179990476D1CBAF1FD
:1048F0000001AAF1010AF1DC65E1000009280100CC
:104900003031323334353637383961626364656645
:104910000000000030313233343536373839414207
:10492000434445460000000000F058F90544761C59
:10493000307800287FF4ECAD19B02846BDE8F08F40
:10494000620700D4062709F1070222F0070CFCE8F1
:104950000223E14603F000485FEA080C02D00FF2A0
:10496000702C0DE05FEA045C02D50FF2682C07E0C2
:104970005FEAC47C02D00FF2602C01E0AFF2700C51
:104980004FF0FF3823F00043CDF850C065280CD01D
:1049900006DC452809D046281DD047283DD13DE0FA
:1049A000662818D067287ED138E00021112F01DB5E
:1049B000112000E0781CCDE9000106A90EA8FFF740
:1049C000EDFCDDE90F010E9A03910021009207F141
:1049D000010A04914DE04FF000400097CDE901102D
:1049E00006A90EA8FFF7DAFCDDE90F0203920E9B81
:1049F00011990022DDF80CA00093049211B9791CE2
:104A000000EB010AB7EB0A0004D4C0F1FF3007F154
:104A1000010A0490AAEB0700019044E0012F00DA9C
:104A200001270021112F01DD112000E03846CDE9DA
:104A3000000106A90EA8FFF7B1FCDDE90F010E9AEF
:104A40000391002104910092BA4621070CD40399E6
:104A5000514500DA8A46BAF1010F05DD009AAAF144
:104A60000101515C302908D0B84202DA10F1040F7C
:104A700006DA0121CDE9011015E0AAF10101E9E70B
:104A8000002805DC049901440491AAEB000102E02E
:104A9000411C514500DD8A460499401A401C019092
:104AA0004FF000400290200704D40198504501DBEC
:104AB000CDF8048000208DF84F0002980DF14F07CB
:104AC000B0F1004F25D02B200E9002984FF0020835
:104AD00000280CDA404202902D200E9007E00A21B7
:104AE0000298FBF7A4FB3031029007F8011DB8F1E2
:104AF0000001A8F10108F2DC02980028EFD1791E2C
:104B00000E980870307800F0200040F0450007F85B
:104B1000020D12A8C01B00F107081498007800B11C
:104B2000012000EB0A01019801EBE0710598414476
:104B3000401A401E0590E00306D45B462146179AB2
:104B4000059800F05DF805441498007818B15A46AD
:104B5000179990476D1CE00324D55B462146179AB0
:104B6000059800F04DF805441CE00498002807DB88
:104B7000DDE90301884203DD0098405C179901E0FC
:104B8000179930205A469047049805F10105401CBA
:104B900004900198401E019004D12E205A46179986
:104BA00090476D1CBAF10001AAF1010ADDDC05E0B5
:104BB00017F8010B5A46179990476D1CB8F1000180
:104BC000A8F10108F4DC5B462146179A0598ABE68C
:104BD0002D0000002B000000200000002DE9F04116
:104BE000044600251E461746880404D405E03946CD
:104BF0002020B0476D1C641EF9D52846BDE8F08121
:104C00002DE9F041044600251E469046C80301D513
:104C1000302700E02027880404D505E041463846C7
:104C2000B0476D1C641EF9D52846BDE8F0810A68BE
:104C3000531C0B601070704770B505460C4685B16B
:104C4000022C0EDB601E295CA01E285C41EA0026B7
:104C5000A01E81B2284600F015F8B04201D1012013
:104C600070BD0120FCE7000010B500BF0120FFF778
:104C700092FB002002490870FFF78DFB00BF10BDBA
:104C80003C01002070B502460C46FF25FF2309E0D9
:104C900012F8010B80EA03010648405C80EA050334
:104CA0000548455C2000A4F10106B4B2F0D143EA06
:104CB000052070BDF1CE0008F1CF000870B50446A4
:104CC00025466868804722460249286804F052FA5F
:104CD00070BD0000BD4C000810B504462046FCF72E
:104CE00019FA10BD70B505460E4600BF05B970BD76
:104CF00000BF6C6A4CB1607A082806D13068A16A9E
:104D0000884202D1284600F097F900BFEFE77CB552
:104D1000064600BF06B97CBD00BF746A00BF04B977
:104D2000F9E700BF00202084606B401C70B1606B0D
:104D30001E303C21B0FBF1F5B5F5803F01D34FF6B5
:104D4000FF756584608C08B901206084A06B401CED
:104D500080B1A06B1E303C21B0FBF1F5B5F5803F72
:104D600001D34FF6FF752583208B08B901202083DE
:104D7000208BA083E06B401C80B1E06B1E303C2197
:104D8000B0FBF1F5B5F5803F01D34FF6FF756583B4
:104D9000608B08B901206083608BE083208B618B7E
:104DA000884204DB608B002801DD00202083E07A4C
:104DB00010B1E06A019010E094F828007F2802DC2E
:104DC000FF21019108E0C02803DB6FF07F410191D2
:104DD00002E04FF6FF71019100BF206B0090009838
:104DE00048B900BFA06A01990840009000BF009830
:104DF00040F0807000900A21204600F06BFF6B4667
:104E000001AA04F12801304603F0D7FC00BF82E775
:104E10002DE9F04105466C6A0821204600F05AFF52
:104E2000002204F12801284601F0B2FA0746A07AD0
:104E3000FF2802DAA07A401CA0724FF4FA7606F23C
:104E4000F310314690FBF1F0E082BDE8F081000004
:104E500070B5184805682AE06C6A34B3607A20B3EC
:104E6000608C68B1208C401C80B22084618C8842A8
:104E700006D1284600F0F8FD284600F03DF914E080
:104E8000E08B40B1E18B481EE083012903D1284625
:104E900000F0B6FF09E0A08B38B1A18B481EA083BB
:104EA000012902D1284600F08AFF2D6800BF002D9D
:104EB000D2D170BD2C0000202DE9F04107460C46F0
:104EC000164600BF1FB96FF00F00BDE8F08100BFAC
:104ED00000BF14B96FF00500F7E700BF00BF00BFC7
:104EE00000BF00BF00224FF49A71104603F027FD67
:104EF000E060E06810B94FF0FF30E6E700BF00BFA8
:104F0000032E08D0A07A18B9FBF74EF93C49086087
:104F10003B4800682060E06840682061012021690A
:104F200008702169487097F82C002169887000206A
:104F30002169C870206802F07BFF21694860002069
:104F400021690881216948812169C860082E0BD038
:104F5000042E09D0072E07D0032E08D1607A052829
:104F600002D0607A042802D178682169C8600020E4
:104F700021690861216948612169886100250FE084
:104F800097F82C00A84205DD062D03D207F12D006D
:104F9000405D00E0002021691C314855681C85B245
:104FA000102DEDD3002505E0002120692C3041555E
:104FB000681C85B2402DF7D3002505E0002120694B
:104FC0006C304155681C85B2802DF7D30D4821699E
:104FD000C1F8EC000020A082002504E02069F03038
:104FE0004555681C85B2442DF8D301223521204651
:104FF00000F0D3F93146204600F0DFF9002064E7E5
:10500000B80000206382536310B500BF00BF08489A
:105010000078401E064908700846007830B90548F7
:10502000006807F029FA00200249086010BD00005E
:10503000B4000020B00000202DE9FC4105466C6A58
:1050400000260C21204600F045FE04222146284679
:10505000FFF732FF064616BB04223221204600F03D
:105060009CF9A06A02F0E4FE80464146204600F02A
:10507000ADF9204600F0DCF9A28AF03291B2E06886
:1050800003F0F6FE0F48CDE9005043230E4A0F48C7
:10509000E168006807F068FA204600F019F8A07A85
:1050A000FF2802DAA07A401CA07242F2107707F2C1
:1050B000F3104FF4FA7190FBF1F0E0823046BDE856
:1050C000FC810000E0C80008E4C80008B00000202F
:1050D00010B5044600BF04B910BD00BF00BF00BF3B
:1050E00000BF00BFE06810B1E06803F002FE0020DE
:1050F000E060206100BFEFE72DE9FC4105466C6AE6
:1051000000270020A0620621204600F0E3FD0122D6
:1051100021462846FFF7D0FE0746002F2ED1022257
:105120003921204600F039F9698D204600F06FF9E9
:1051300004223721204600F030F9002606E01F48FF
:10514000815D204600F039F9701CC6B2042EF6D3FA
:10515000204600F06DF9A28AF03291B2E06803F0C7
:1051600087FE1748CDE900504323164A1648E168E8
:10517000006807F0F9F92046FFF7AAFFA07AFF2898
:1051800002DAA07A401CA072A07A062803DAA17A7B
:105190000120884000E03C2000EB4001C1EBC01042
:1051A0004FF6FF7101EAC00808F2F3104FF4FA71EC
:1051B00090FBF1F0E0823846BDE8FC81AC000020B5
:1051C000E0C80008E4C80008B000002070B50D4831
:1051D000056813E06C6A7CB1E08A012803DDE08A8F
:1051E000401EE08208E0E08A012805D1E08A401EE6
:1051F000E082284600F028FE2D6800BF002DE9D18E
:1052000070BD00002C00002070B505466C6A0020BF
:10521000E06220631A48C07810B11A48C068606321
:105220001748007918B117480069A06302E0606B65
:105230004008A0631248407918B112484069E06301
:1052400004E0606BC0EBC000C008E0636068006908
:10525000A0620B48807938B10A49886902F0E8FDFC
:10526000E0620120E07201E00020E0720448C079B1
:1052700020B10449C86902F0DBFD206370BD000065
:10528000A83700208037002070B50446656A0C21DD
:10529000284600F01FFD054B1A461146204603F034
:1052A0008CFA2046FFF728FF70BD0000E0C8000818
:1052B00070B505466C6A0748807850B10649886821
:1052C00002F0B6FD606260680069A062284600F0E6
:1052D0007FFC70BDA83700208037002010B518482B
:1052E000007828BB00BF00BF07F06EF815490860C2
:1052F0000846006810B94FF0FF3010BD1148006833
:10530000007A40F020000F490968087244220E49D3
:105310000C48006806F04AFE43220B490948006821
:1053200006F0A8FE002209490648006807F0A0F828
:1053300003480078401C024908700020DDE70000A7
:10534000B4000020B0000020E0C800083559000873
:1053500070B505466C6A04B970BD607A042809D03E
:1053600003DC80B103280FD107E0052803D00A2809
:105370000AD101E000BF00BF00BF0020A072284694
:1053800000F06AFA06E005E00020A0722846FFF768
:10539000B3FE00BF00BF00BFDEE710B500BF00BF17
:1053A000848A631C83820369F0331955848A631CE1
:1053B00083820369F0331A5510BD00BF00BF838A92
:1053C0005A1C82820269F032D154704710B500BF76
:1053D00000BF0B0E848A621C82820269F032135570
:1053E000C1F30743848A621C82820269F03213553A
:1053F000C1F30723848A621C82820269F03213554A
:10540000848A621C82820269F032115510BD10B587
:1054100000BF00BF0B0A848A621C82820269F032DC
:105420001355848A621C82820269F032115510BDC4
:1054300000BF00B9704700BF00BF00BF00BF00BF82
:10544000FF22838A591C81820169F031CA5406E027
:105450000022838A591C81820169F031CA54818AF1
:10546000442903D3017D01F0030111B1818A44294C
:10547000EED300BFDEE700002DE9F34F89B0894687
:105480000020069005900A21C248FAF7B8FEB9F844
:105490000A002C2804D26FF001000BB0BDE8F08F99
:1054A000D9F80410099841604FF0F00BB9F80800E2
:1054B000079000BF4C460AE06089ABEB00001FFA82
:1054C00080FB61890798401A80B20790246814B164
:1054D00060895845F0DD14B96FF00100DDE75F46E3
:1054E000DDF81CA0606808901EE10898C05D04907B
:1054F00000264FF0FF38B81C80B203906189781CF9
:10550000814203DD791C0898455C07E0206818B1EA
:1055100020684068007800E0002005462E46049888
:10552000342856D00BDC032822D003DC80B10128BC
:1055300073D113E0062826D033287DD13FE03528EB
:1055400051D0362859D03A2861D03B2874D169E02F
:10555000002005460646781E87B26FE000BF042D86
:1055600002D06FF0050098E700BF4FF0060865E035
:10557000042600BFB54202DA6FF005008DE700BFD8
:105580004FF007085AE000BFE91705EB9171891049
:10559000A5EB810111B16FF005007EE700BF082D7A
:1055A00001DA284600E00820064600BFB54202DACC
:1055B0006FF0050071E700BF4FF008083EE000BF44
:1055C000042D02D06FF0050067E700BF4FF003081D
:1055D00034E000BF012D02D06FF005005DE700BF91
:1055E0004FF000082AE000BF012D02D06FF0050047
:1055F00053E700BF4FF0010820E000BF042D02D0A8
:105600006FF0050049E700BF4FF0020816E000BF49
:10561000042D03D06FF005003FE70DE000BF4FF011
:1056200004080BE000BF042D02D06FF0050034E742
:1056300000BF4FF0050801E0002600BF00BFA81C16
:10564000384487B2002E57DD0020029000BF00BF13
:1056500000BF504810F8080098BB042E01DA30460D
:1056600000E00420019002A92046039B019A03F068
:10567000F7FA01460198814202D06FF001000CE771
:10568000042E1FDD00BFF11706EB91718910A6EB08
:10569000810111B16FF00500FFE600BF01203D4917
:1056A00001F80800029802F0C3FB3B4941F82800CA
:1056B000301FC6B20398001D80B2039008F10108A4
:1056C000C5E718E0042E04D1029802F0B1FB029065
:1056D00009E000BF012E02D06FF00500DDE600BF3B
:1056E0009DF80800029001202A4901F808002A4983
:1056F000029841F8280000BF6089B84213DC608935
:10570000381A87B26089AAEB00001FFA80FA574561
:1057100008DABAF1000F05D0246800BF00BF606846
:10572000089000E008E000BF34B10898C05DFF2891
:1057300002D05745FFF6D9AE00BF16480078A0B199
:10574000154908680021134A1170012802D101216E
:10575000069109E0022802D10121059104E0032805
:1057600002D101210591069100BF069830B10020B9
:1057700006904FF06C0BEC2007909BE6059830B13B
:10578000002005904FF02C0B6C20079092E6002033
:1057900083E60000A8370020803700202DE9F84379
:1057A00005466C6A0421204600F094FA0322214643
:1057B0002846FFF781FB074667BB022239212046B6
:1057C000FFF7EBFD698D2046FFF721FE042237210C
:1057D0002046FFF7E2FD002606E01C48815D2046DA
:1057E000FFF7EBFD701CC6B2042EF6D32046FFF780
:1057F0001FFEA28AF03291B2E06803F039FB0095F7
:105800004323134A1348E168006806F084FE2046EB
:10581000FFF75EFCA07AFF2802DAA07A401CA07293
:10582000A07A0A2804DAA07A4FF47A71484301E09A
:1058300042F210701FFA80F808F2F3104FF4FA7178
:1058400090FBF1F0E0823846BDE8F883AC00002020
:10585000E4C80008B00000202DE9F8430646746A49
:105860000321204600F036FA032221463046FFF796
:1058700023FB0746002F3AD1022239212046FFF7A9
:105880008CFD4FF410712046FFF7C1FD0422322138
:105890002046FFF782FDA06A02F0CAFA8146494617
:1058A0002046FFF793FD042237212046FFF775FDC0
:1058B000002506E01C48415D2046FFF77EFD681C80
:1058C000C5B2042DF6D32046FFF7B2FDA28AF0320E
:1058D00091B2E06803F0CCFA00964323134A1448CF
:1058E000E168006806F017FE2046FFF7F1FBA07A9A
:1058F000FF2802DAA07A401CA072A07A0A2804DAF3
:10590000A07A4FF47A71484301E042F210701FFA16
:1059100080F808F2F3104FF4FA7190FBF1F0E08296
:105920003846BDE8F8830000AC000020E4C8000859
:10593000B00000202DE9F05F83461646DDF828A070
:10594000464847687C6AD6F804900CB1207A00B9C2
:105950007BE000BF00BF00BF00BF70892C2800DAC9
:1059600073E099F80000022800D06EE000250AE0FC
:1059700007F12D00415D09F11C00405D814200D01E
:1059800063E0681CC5B297F82C00A84203DD062D21
:1059900001D2102DECD3D9F8040002F049FA2168A5
:1059A000884200D051E031462046FFF765FD00B146
:1059B0004BE02B48407800B947E02A4890F8048033
:1059C000B8F1050F22D1607A01280FD13846FFF7D0
:1059D0001BFC97F8330000F0080018B13846FFF7B9
:1059E00017FA31E03846FFF792F92DE0607A032884
:1059F00005D0607A042802D0607A052824D1384680
:105A0000FFF702FC3846FFF782F91DE0B8F1060FF8
:105A10000FD1607A032808D0607A012805D0607A17
:105A2000042802D0607A052803D13846FFF72CFC01
:105A30000AE0B8F1020F07D1607A062804D10020ED
:105A4000E0823846FFF734FC00BF0CB100206060F4
:105A5000304603F04EF9BDE8F09F000014300020FE
:105A6000A8370020803700202DE9FC4105466C6AEC
:105A70001CB96FF00F00BDE8FC81606A01902846F8
:105A800000F08CF907460021204600F023F90020A1
:105A90006062A062E0622063E063A0636063608490
:105AA0002084E083A08307B9E5E707222146284642
:105AB000FFF702FA064606BB042236212046FFF70E
:105AC0006CFC019802F0B4F9804641462046FFF78D
:105AD0007DFC2046FFF7ACFCA28AF03291B2E06870
